:020000040800F2
:100000000050002021020008270200082B020008EF
:100010009D020008A1020008E9020008000000009B
:100020000000000000000000000000003103000894
:100030003503000800000000390300086D180008AF
:100040004D0300084D0300084D0300084D03000850
:100050004D0300084D030008CD070008E90700081C
:1000600005080008210800083D0800084D030008A5
:100070004D0300084D0300084D0300084D03000820
:100080004D0300084D0300084D0300084D03000810
:100090004D0300084D0300084D03000859080008EF
:1000A0004D0300084D0300084D0300084D030008F0
:1000B000051D0008211D0008411D00084D03000812
:1000C0004D0300084D0300084D030008D90D00083A
:1000D000F90D00084D0300084D0300084D0300080A
:1000E000910800084D0300084D03000800000000BF
:1000F0000000000000000000000000000000000000
:1001000000000000000000005FF808F100B583B0B7
:1001100000F0AAF9304B314A1360314A1360314B79
:10012000314A32498B4204D21168196004330432D7
:10013000F7E72A4B1A682E4B9A4200D0FEE7284B6D
:100140001A682C4B9A42F9D1234B2B4A13602B4A45
:1001500013602B4B02E000221A600433294A9342B9
:10016000F9D3254B1B6813B9244B1B6803B1FEE779
:1001700000F086F9694601A800F022F9224C234BD1
:10018000E41AA4100025AC4214DC214C214BE41AE3
:10019000A4100025AC4213DC0099019801F0E0FDA9
:1001A00005461D4C1D4BE41AA410002C0EDC2846FD
:1001B00000F0E2F8154B53F8253098470135E2E797
:1001C000144B53F8253098470135E3E7013C134BB6
:1001D00053F824309847E8E7BABADECA0000002096
:1001E0008800002000000020F02C00088C00002077
:1001F00078563412325476988C0000200004002087
:100200008C00002004040020780300087803000814
:1002100078030008780300087803000878030008D2
:1002200008B5FFF773FF00BEFEE71EF0040F0CBF1A
:10023000EFF30880EFF309807146414A10472DE93A
:10024000F04182B004468846124B5E6B9F6B9D6AFC
:100250001B6B13F0020F03D00E4BDB6A002B0CDB81
:100260000D4800F0B5F8CDF800803B4632462946EF
:10027000204600F009F900BEFEE74BF6AB6100F046
:100280007DF90028ECD0034B4FF00042DA6202B057
:10029000BDE8F08100ED00E01827000800BEFEE791
:1002A0001EF0040F0CBFEFF30880EFF309807146D6
:1002B000244A10472DE9F04182B004468846084B95
:1002C0005E6B9F6B9D6A074800F082F8CDF8008056
:1002D0003B4632462946204600F0D6F800BEFEE7EF
:1002E00000ED00E0282700081EF0040F0CBFEFF31C
:1002F0000880EFF309807146134A10472DE9F04159
:1003000082B004468846084B5E6B9F6B9D6A074827
:1003100000F05EF8CDF800803B4632462946204684
:1003200000F0B2F800BEFEE700ED00E03427000860
:1003300000BEFEE700BEFEE700BEFEE7704700001D
:100340003F020008B5020008FD02000800BEFEE7FB
:10035000F02C0008000000208C000020F02C000889
:1003600000000000000000008C00002004040020B9
:08037000000000000000000085
:10037800FEE7000008B503460C4A12685AB10B4A5A
:100388001068033323F003030344094A934206D851
:10039800064A136008BD054A06491160EFE701F0F7
:1003A800F9FC0C2303604FF0FF30F3E790000020C6
:1003B800004C00200404002001230360014B0B6063
:1003C800704700BF040000200FB400B583B004AB31
:1003D80053F8042B01938021064801F00DFD0028F5
:1003E80003DD0146034800F037F803B05DF804EB7D
:1003F80004B07047980000202DE9F04385B004460A
:100408000F4643560BB10E461EE0042528462146EA
:10041800ABBE0446384605B0BDE8F08314F9011BAD
:1004280004AA1A4402F8101C0133AB42F6D304AAFA
:100438001344002203F8102C4FF00408E946404604
:100448004946ABBE8046761B002EE3D03546102EBB
:1004580028BF10250023E8E708B5FFF7CDFF08BD42
:1004680008B500F0FDF8024A024B9A6008BD00BFCB
:100478000000000800ED00E008B500F019F908BD1B
:10048800F8B504460D4617461E462748FFF79CFF59
:1004980021682648FFF798FF61682548FFF794FF11
:1004A800A1682448FFF790FFE1682348FFF78CFF15
:1004B80021692248FFF788FF61692148FFF784FF17
:1004C800A1692048FFF780FFE1691F48FFF77CFF1B
:1004D8001E48FFF779FF29461D48FFF775FF1D4C99
:1004E800E16A1D48FFF770FF216B1C48FFF76CFF9E
:1004F800E16B1B48FFF768FF15F0800F0AD115F470
:10050800004F0CD11748FFF75FFF06991648FFF711
:100518005BFFF8BD39461548FFF756FFEFE7314650
:100528001348FFF751FFEDE7FC2500080C260008EB
:100538001C2600082C2600083C2600084C2600082B
:100548005C2600086C2600087C2600088C2600081B
:100558009826000800ED00E0A8260008B826000844
:10056800C8260008F826000800270008D826000832
:10057800E826000883691A888A4201D0002070475B
:100588000268033A012A03D80233836101207047C5
:100598000020704782B00023019300932C4A13680F
:1005A80043F4803313602A4B1B6803F40033009331
:1005B800019B01330193009B1BB9019BB3F5A06F0D
:1005C800F1D1234B1B6813F4003F06D0012300939D
:1005D800009B012B04D002B0704700230093F7E77B
:1005E8001C4B1A6842F010021A601A6822F00302C3
:1005F8001A601A6842F002021A60A3F580535A681A
:100608005A605A685A605A6842F480625A605A6856
:1006180022F47C125A605A6842F4E8125A601A6846
:1006280042F080721A600A4B1B6813F0007FFAD000
:10063800074B5A6822F003025A605A6842F00202D5
:100648005A60034B5B6803F00C03082BF9D1C2E72F
:10065800001002400020024008B5FFF79BFF08BDCC
:1006680008B5104B1A6842F001021A6059680E4A20
:100678000A405A601A6822F0847222F480321A60A2
:100688001A6822F480221A605A6822F4FE025A601C
:100698004FF41F029A60FFF7DFFF044B4FF0006230
:1006A8009A6008BD001002400000FFF800ED00E06D
:1006B8001F4B5B6803F00C03042B15D0082B17D0D5
:1006C8001BB11C4B1C4A1A6002E01A4B1A4A1A60EA
:1006D800174B5B68C3F30313184AD35CDAB21549A6
:1006E8000B68D3400B607047124B134A1A60EFE750
:1006F8000F4A53685268C3F38343023312F4803FAE
:100708000AD00B4A526812F4003F0BD00C4A02FB85
:1007180003F3084A1360DBE7094A02FB03F3054ABF
:100728001360D5E7044A02FB03F3024A1360CFE7DC
:10073800001002401C00002000127A000C0000206B
:1007480000093D000F280FD810B4830800F00300FB
:100758008000064C023354F8232001FA00F01043BD
:1007680044F8230010BC7047704700BF00000140E8
:10077800024AD36843F40063D36070470004014021
:1007880003490B68012202FA00F003430B6070472B
:1007980000040140034B5B6923FA00F000F00100FC
:1007A800704700BF00040140012303FA00F0014B29
:1007B8005861704700040140014B43F8201070470E
:1007C8001801002008B50020FFF7EEFF034B1B6857
:1007D80013B1024B1B68984708BD00BF18010020E1
:1007E80008B50120FFF7E0FF034B5B6813B1024B2C
:1007F8005B68984708BD00BF1801002008B50220B3
:10080800FFF7D2FF034B9B6813B1024B9B689847D5
:1008180008BD00BF1801002008B50320FFF7C4FF7A
:10082800034BDB6813B1024BDB68984708BD00BF78
:100838001801002008B50420FFF7B6FF034B1B6919
:1008480013B1024B1B69984708BD00BF180100206F
:1008580010B5052401E00134E4B2092C11D8204672
:10086800FFF798FF0028F6D02046FFF79DFF054BBD
:1008780053F82430002BEED0024B53F8243098471D
:10088800E9E710BD1801002010B50A2401E0013481
:10089800E4B20F2C11D82046FFF77CFF0028F6D0D1
:1008A8002046FFF781FF054B53F82430002BEED08C
:1008B800024B53F824309847E9E710BD180100208F
:1008C80010B401283DD018B1022873D010BC70476D
:1008D800A2F11003DBB2012B16D90F298CBF00231C
:1008E800012313EAD1031ED04F4C236801F00700FF
:1008F80080000F21814023EA01032360236802FA64
:1009080000F018432060E1E7484B186801248C4048
:1009180020EA04001860186802F001048C402043A3
:1009280018605208D9E7424C236889000F20884094
:1009380023EA00032360206802FA01F101432160E1
:10094800C4E7A2F11003DBB2012B16D90F298CBF23
:100958000023012313EAD1031ED03648046801F0AE
:1009680007039B000F21994024EA010101600168F7
:1009780002FA03F30B430360A8E72F4B186801241E
:100988008C4020EA04001860186802F001048C40CA
:10099800204318605208D9E7284C236889000F20A3
:1009A800884023EA00032360206802FA01F101432A
:1009B80021608BE7A2F11003DBB2012B14D90F29B8
:1009C8008CBF0023012313EAD1031CD11C4B1868E8
:1009D80089000F248C4020EA04001860186802FA85
:1009E80001F10143196071E7164B186801248C4026
:1009F80020EA04001860186802F001048C402043C3
:100A080018605208DBE7104C236801F007018900E1
:100A18000F20884023EA00032360206802FA01F1CE
:100A28000143216052E700BF040801400C0801405F
:100A380000080140040C01400C0C0140000C01406E
:100A4800001001400C10014004100140012813D08F
:100A580010B102281FD0704712B1012A06D0704782
:100A6800012303FA01F1134B19607047012303FABC
:100A780001F1114B196070473AB1012AEFD10123F6
:100A880003FA01F10D4B19607047012303FA01F1D4
:100A98000B4B196070473AB1012AE0D1012303FAE0
:100AA80001F1084B1960DAE7012303FA01F1064B5B
:100AB800196070471408014010080140100C0140EB
:100AC800140C0140101001401410014008B5174BD8
:100AD8001B781BB1164B00221A7008BD00F0BAFE35
:100AE80013490B78DBB280B2124A22F813000B7854
:100AF800DBB232F813309BB243F2C722934209D9D2
:100B08000A460B78DBB20B4931F813309BB20B80E5
:100B180000231370064A13780133DBB213700649B9
:100B280043F6982000F080FED7E700BF250200209A
:100B380024020020C0010020450B000808B5194B0D
:100B48001B783BB3112301E00133DBB2182B11D81A
:100B5800154A32F8132092B2B2F5FA6FF4D3A3F122
:100B68001101012202FA01F1104802780A43D2B2B7
:100B78000270E9E70E490B78DBB25A1CD2B20A7050
:100B88000A490A78D2B20B48C25400230B70054AAE
:100B9800137008BD0849094800F046FE014B0122C0
:100BA8001A70F6E758010020C00100202502002035
:100BB800590100205C010020450B0008A0860100B7
:100BC80008B504220B210120FFF77AFE01210B2032
:100BD800FFF7B8FD07490B20FFF7EEFDFFF7C8FD4B
:100BE8000B20FFF7CDFD282000F02AF800F0FCFDCF
:100BF80008BD00BFD50A000882B00F4B1B78DBB2D6
:100C08008DF807309DF807308BB1002205E0511CA4
:100C18000948435CDBB28354CAB2084B1B78DBB289
:100C28009342F4D8054A1378013BDBB213709DF860
:100C3800070002B0704700BF5C0100205901002086
:100C48001F2809D93B2806D800F01F00012303FA02
:100C580000F0044B18607047012303FA00F0024BC0
:100C68001860704704E100E000E100E03B2818D874
:100C780030B40C4D2B78DC1E0123A340013B5BB242
:100C88001A4000F1604000F564401201D2B20270CF
:100C980003782A78013291401943C9B2017030BCF7
:100CA8007047704726020020054B064A1A60044B1D
:100CB8001B6813F4003FFAD0034B01221A607047F7
:100CC8000010024080000100041002401F291CD8B7
:100CD80001280BD010B1022810D070470B480368C8
:100CE800012202FA01F119430160704708480368BC
:100CF800012202FA01F119430160704705480368AF
:100D0800012202FA01F119430160704714100240F0
:100D18001C10024018100240034B1860C0F3072053
:100D2800024B1870704700BF0CED00E0260200204F
:100D380008B5092205210020FFF7C2FD0922072175
:100D48000020FFF7BDFD112206210020FFF7B8FDA6
:100D5800022200210846FFF7B3FD0A4B4FF4407208
:100D68001A601A6842F001021A601A6842F0020218
:100D78001A601A6842F004021A601A6842F04002C7
:100D88001A6008BD0030014038B505460C460022FF
:100D980011461046FFF75AFE0C4B9B6813F0020FE2
:100DA800FAD00A4BDD60094B9B6813F0800FFAD12B
:100DB800064B9B6813F0010FFAD0044BDB682370D5
:100DC800012200210846FFF741FE38BD00300140EE
:100DD80008B5054B1B682BB1034B1B68034AD06849
:100DE800C0B2984708BD00BF28020020003001406B
:100DF80008B5054B1B682BB1034B1B68034AD06829
:100E0800C0B2984708BD00BF2C020020003800403F
:100E180070B4284E336843403360274D2B684340F5
:100E28002B60264C23684340236025490B685840B3
:100E380008603268336883EA82135B0B214A1360C7
:100E48003068C0F34C00136883EAC04333602868F5
:100E58002B6883EA8003DB0E13602B689B0023F06A
:100E68001F03106843402B602068236883EA4033DF
:100E78005B0D13602368DB0123F4FF6323F0070392
:100E880010684340236008680B6883EAC0031B0BA3
:100E980013600868C0F3CB10136883EA00530B6033
:100EA800336828684340206843400868584070BC4D
:100EB800704700BF380200203C020020400200209A
:100EC8004402002034020020104BDB78DBB2032BF5
:100ED80007D8DFE803F002020F0F182802D05228C3
:100EE80004D07047094B0222DA707047074B03227F
:100EF800DA7070475A2805D00828F2D1034B01222E
:100F0800DA70EEE7014B0022DA70704774020020B5
:100F180082B000238DF80730214B1B78214A1278C4
:100F28009B1ADBB2032B1AD81D4B5B781E4A12782A
:100F38009B1ADBB2032B0BD91B4B1B78184A527830
:100F48009B1ADBB2062B06D801238DF8073002E086
:100F580001238DF807309DF8070002B07047114B48
:100F68001B780F4A12789B1ADBB2062BF3D80C4B6E
:100F78005B780D4A12789B1ADBB2032B0BD90A4B0C
:100F88001B78074A52789B1ADBB2062BE3D8012359
:100F98008DF80730DFE701238DF80730DBE700BF66
:100FA80074020020200000202100002082B00023CD
:100FB8008DF80730042322E001238DF807309DF8CF
:100FC800070002B07047244810F821200078121A50
:100FD800D2B2052A11D82048427800EB8100407827
:100FE800121AD2B2052A2ED91B4800EB81014A7881
:100FF8004178521AD2B2052A29D90133DBB21946EF
:10100800164A1278013A9342D9DA1348027810F84E
:101018002300121AD2B2052AD5D80F48427800EB1D
:1010280081004078121AD2B2052AC5D90A4800EBC5
:1010380081014A784178521AD2B2052ADDD80123B3
:101048008DF80730BBE701238DF80730B7E7012398
:101058008DF80730B3E700BF740200207302002048
:1010680082B000238DF80730134B1B78DBB2022BBC
:1010780012D9114B1B7806337C2B14D80E4B5B7896
:10108800DBB20D2B13D90C4B5B7806339C2B06D99E
:1010980001238DF8073002E001238DF807309DF811
:1010A800070002B0704701238DF80730F7E70123E6
:1010B8008DF80730F3E700BF7402002000B583B055
:1010C80000238DF80730FFF771FF38B101238DF841
:1010D80007309DF8070003B05DF804FBFFF7C0FF79
:1010E8000028F6D001238DF80730F2E72B490A785B
:1010F800013A0878C0B22A4B03EB8202126843F81F
:1011080020200A78013A03EB8202012090700A78C5
:10111800013A03EB8203DB78DBB2032B0FD8DFE85D
:1011280003F00214212F1D4A1378013B1C4911F8C2
:1011380023301278D2B2063BDBB201F82230174ACC
:1011480013780133DBB213707047144A1378013BEC
:10115800134911F823301278D2B20633DBB201F802
:101168002230ECE70D490B78013B0D4A02EB830373
:101178005B7809780633DBB202EB81025370DEE755
:1011880006490B78013B064A02EB83035B78097832
:10119800063BDBB202EB81025370D0E773020020FA
:1011A8007402002008B500F0C6FBFFF709FD00F047
:1011B80041FD0848FFF7B0FD002211462820FFF73F
:1011C80055FD002201211D20FFF750FD1D20FFF7CE
:1011D80037FD08BD0005FA0530B583B04FF660004D
:1011E80000F003FC042501954FF6600400944FF4C9
:1011F800FC631E220521094800F0D4FC01950094E7
:101208004FF4FC6346221421054800F0CBFC4FF450
:10121800FA6000F01BFD03B030BD00BF7027000866
:101228007827000830B583B0002000F0DEFB0425E5
:101238000195002400944FF478431E220F21094899
:1012480000F0B0FC019500944FF478434622082141
:10125800054800F0A7FC40F6B83000F0F7FC03B0F2
:1012680030BD00BF442700084C27000810B582B0E5
:101278004FF4835400940D230B227F21002000F0AB
:10128800E5FB00949F230B227F217D2000F0DEFBED
:1012980000949F239D227F21002000F0D7FB00941B
:1012A8009F230B220221002000F0D0FB02B010BDCA
:1012B80030B583B0002000F098FB0124019400258C
:1012C80000954FF6FF73224621460C4800F06AFC51
:1012D800019400954FF6FF7322464E21084800F00E
:1012E80061FC4FF6412300939D230D227D210220AE
:1012F80000F0ACFBFFF7BAFF03B030BD8027000851
:101308008827000830B583B04FF66004009469233D
:10131800282273210C2000F099FB022501950094E6
:101328004FF4FC632B2212210B4800F03BFC019583
:1013380000944FF4FC633F221E21084800F032FC61
:10134800019500944FF4FC6357221C21044800F0D7
:1013580029FC03B030BD00BF5427000860270008EF
:101368006827000810B582B0084B18781978084B20
:101378001A781B78033303314FF478440094DBB2B6
:10138800C9B200F063FB02B010BD00BF200000200E
:101398002100002030B583B0002413E0264B13F859
:1013A800240013F8241003EB84035A785B7806337F
:1013B80006314FF408550095DBB2C9B200F046FB80
:1013C8000134E4B21D4B1B78DBB2A34232D91A4B6D
:1013D80003EB84039B78002BE0D0174B03EB8403CB
:1013E8009B78DBB2022B12D0134B13F8240013F8AE
:1013F800241003EB84035A785B78063306314FF4E4
:10140800FC650095DBB2C9B200F020FBD8E70A4BB7
:1014180013F8240013F8241003EB84035A785B783C
:10142800063306314FF641250095DBB2C9B200F00C
:101438000DFBC5E703B030BD740200207302002025
:1014480008B500EB800000EB8000C30098B2C0F53F
:10145800487080B2014900F017FC08BDFD1600086D
:1014680008B5FFF7C9FB08BDF0B583B0324A137859
:101478000133DBB213701378DBB2092B33D917466B
:101488001078C0B22D4CA4FB003001250195002630
:1014980000964FF6FF732A462B21C00800F074FB14
:1014A8003878C0B2A4FB0034E40804EB840404FADE
:1014B80005F3C01A019500964FF6FF732A463121AD
:1014C800C0B200F061FB1C4B1A78D2B21B4BA3FBD5
:1014D8000213DB0803EB83035900521A12F0FF0FC3
:1014E80017D003B0F0BD01240194002500954FF6F4
:1014F800FF7322462B21284600F046FB0E4B187836
:10150800019400954FF6FF732246312100F03CFB11
:10151800D9E70B4C2078FFF793FF23780133DBB230
:101528002370207801220192002300934FF6FF7365
:10153800732100F029FBD4E770020020CDCCCCCC7D
:101548007102002030B583B000F0BCFB4FF6600498
:1015580000945A232E227221102000F077FA0125D8
:10156800019500944FF4FC6332221421154800F0D1
:1015780019FB019500944FF4FC6341221421124891
:1015880000F010FB019500944FF4FC6350221421E5
:101598000E4800F007FBFFF72FFB1C28FBD14FF686
:1015A800412300935A232E227221102000F04EFA74
:1015B800FFF7D8FEFFF7EEFE054B1878FFF740FF60
:1015C80003B030BD90270008A0270008B027000806
:1015D8007102002008B500F075FB4FF47A7000F036
:1015E80035FBFFF71FFE08BD70B582B0184D28788F
:1015F8002978184C22782378033303314FF6412693
:101608000096DBB2C9B200F021FA00F069FBFFF7DF
:10161800FFFB4308104AA2FB03235B09722202FB6B
:1016280013030633DBB22B7000F05AFBFFF7F0FB15
:101638000A4BA3FB0023DB0903EB0313DA00831A2D
:101648001033DBB22370FFF78DFE02B070BD00BF10
:101658002000002021000020EF23B88FF1F0F0F0E7
:1016680010B582B01D4B00219970D97037221A70BD
:101678005A700120987131241C715A7102249C728D
:101688002B241C725A72164B03221A70154BFF2218
:101698001A70154B1970154B1870FFF733FE144963
:1016A8004FF6E85000F0F0FAFFF7A6FA1C28FBD135
:1016B8004FF6412300936923282273210C2000F060
:1016C800C5F9FFF7D1FEFFF765FEFFF78DFF074B62
:1016D8001B78002BFBD102B010BD00BF74020020A4
:1016E80073020020700200207102002072020020A4
:1016F8000D13000810B5FFF7B3FE314B18701B78B7
:1017080043B12F4B1B78DBB21C2B08D02C4B18781D
:10171800FFF7DAFB2B4B1B78013BDAB214E0FFF73B
:1017280011FFF7E7511E284B13F82100C0B203F848
:10173800220003EB81046078C0B203EB8203587087
:10174800E278D2B2DA70CAB2002AEBD11E4BDB784B
:10175800DBB2032B08D8DFE803F00212181E1A4A7E
:1017680013780633DBB21370FFF7A8FCC8B9FFF78C
:10177800CFFBE0B9FFF7F6FDFFF70CFE10BD124AEC
:101788001378063BDBB21370EEE70F4A5378063B3B
:10179800DBB25370E8E70C4A53780633DBB2537078
:1017A800E2E70A4B00221A70FFF7F4FDE6E7FFF7BD
:1017B8009DFCFFF759FEFFF759FDFFF715FFD9E725
:1017C8003002002073020020740200207202002000
:1017D80008B5FFF7E7FCFFF7FFFCFFF769FDFFF728
:1017E8003FFFFFF7F7FEF8E7014B00221A6070474A
:1017F80010E000E00123084A1370084A1160084A03
:101808001370084B00221A609A6020F07F405860DD
:1018180003221A60704700BF500200204C020020CB
:101828004802002010E000E008B5FFF7E3FF024B94
:1018380000221A7008BD00BF48020020034A002396
:10184800136053609360024A1370704710E000E021
:1018580050020020024B58689B68C01A704700BFAE
:1018680010E000E000B583B0094B1B68DBB28DF8CF
:101878000730084B1B7843B1074B1B6813B1064B65
:101888001B68984703B05DF804FBFFF7D7FFF3E741
:1018980010E000E0480200204C02002010B5044689
:1018A800012202210020FFF7D1F802492046FFF764
:1018B8006BFA10BD5202002010B50446000AFFF76B
:1018C800EDFFE0B2FFF7EAFF10BD000010B50446D7
:1018D800002202211046FFF7B9F802492046FFF717
:1018E80053FA10BD51020020F8B507460E461546BA
:1018F8001C462A20FFF7EAFF0020FFF7CFFF3846F3
:10190800FFF7CCFF0020FFF7C9FF3046FFF7C6FFFF
:101918002B20FFF7DBFF0020FFF7C0FF2846FFF76B
:10192800BDFF0020FFF7BAFF2046FFF7B7FF2C20C6
:10193800FFF7CCFFF8BD08B5022211460020FEF7DC
:10194800BFFF022203210020FEF7BAFF0022032175
:101958001046FFF77BF800F045F9FFF7E9F9012297
:1019680003210020FFF772F8642000F044F90022F8
:1019780003211046FFF76AF8012000F03CF9012224
:1019880003210020FFF762F8642000F034F90022F8
:1019980003211046FFF75AF8642000F02CF90122C1
:1019A80003210020FFF752F84EF6602000F023F9DB
:1019B8004EF6602000F01FF91120FFF787FF4CF268
:1019C800503000F018F94CF2503000F014F94CF295
:1019D800503000F010F93A20FFF778FF0520FFF7A4
:1019E8005DFF2920FFF772FF08BD38B505462A209C
:1019F800FFF76CFF0020FFF751FF0020FFF74EFFB5
:101A08000020FFF74BFF7F20FFF748FF2B20FFF751
:101A18005DFF0020FFF742FF0020FFF73FFF002097
:101A2800FFF73CFF9F20FFF739FF2C20FFF74EFF01
:101A3800002407E0280AFFF731FFE8B2FFF72EFF7E
:101A48000134A4B2B4F5A04FF4D338BD2DE9F8435E
:101A58008146884617461E46BDF820502A20FFF7C3
:101A680035FF0020FFF71AFF4846FFF717FF002051
:101A7800FFF714FF4046FFF711FF2B20FFF726FF63
:101A88000020FFF70BFF3846FFF708FF0020FFF79D
:101A980005FF3046FFF702FF2C20FFF717FF002451
:101AA80007E0280AFFF7FAFEE8B2FFF7F7FE01346D
:101AB800A4B2A8EB0901F21B531C01FB03339C429F
:101AC800EFDBBDE8F88300002DE9F04F83B08146D5
:101AD80008469846BDF830709DF8345005EB45012E
:101AE8004B00C118C9B202EBC503DBB2013B013997
:101AF800DBB2C9B2FFF7F8FE002301934FF0010AE9
:101B080037E04046FFF7D8FE0134E4B2AC42F8D3E0
:101B18000136F6B2042E13D809EB89033344194A67
:101B2800D35C13EA0A0F01D1002406E00024EDE794
:101B38003846FFF7C1FE0134E4B2AC42F8D3E7E718
:101B4800002404E03846FFF7B7FE0134E4B2AC42A3
:101B5800F8D30BF1010B5FFA8BFBAB4501D20026E2
:101B6800D8E74FEA4A0A5FFA8AFA019B0133DBB2E7
:101B78000193019B072B02D84FF0000BEDE703B050
:101B8800BDE8F08FC027000810B582B030309DF84E
:101B980014400194BDF810400094C0B2FFF794FFC0
:101BA80002B010BD2DE9F04383B004468946904643
:101BB8001F46BDF828609DF82C500DE00195009651
:101BC8003B4642464946FFF77FFF013405EB450394
:101BD800590049445FFA81F920780028EED103B012
:101BE800BDE8F0834FF0804304221A6007229A620E
:101BF80001225A6170474FF080431A6822F00202AE
:101C08001A601A6822F080021A6000225A62D862AA
:101C1800012159611A611A6842F009021A604FF0ED
:101C280080431B6913F0010FF9D04FF08043002265
:101C38001A617047044B04221A6041F63F729A6297
:101C480001225A61704700BF000400400D4B1A681A
:101C580022F002021A601A6822F080021A6000223A
:101C68005A62D862012159611A611A6842F0090260
:101C78001A60044B1B6913F0010FFAD0014B0022C4
:101C88001A617047000400400C4B19600C4B1A682D
:101C980042F084021A601A6822F008021A60DA68B0
:101CA80042F00102DA6000225A62D86201215961C9
:101CB8001A611A680A431A60704700BF5C02002064
:101CC80000040040054B1A6822F001021A60DA6825
:101CD80022F00102DA6000221A6170470004004015
:101CE800044AD36A526A9B1A9BB2034A138010882B
:101CF800704700BF000400405402002008B54FF0B0
:101D0800804300221A61034B1B6813B1014B1B6807
:101D1800984708BD5802002008B5054B00221A61F3
:101D2800044B1B6813B1034B1B68984708BD00BFE1
:101D3800000400405C02002008B5054B00221A612F
:101D4800044B1B6813B1034B1B68984708BD00BFC1
:101D5800000800406002002008B5FEF7A5FF022138
:101D68000846FEF7B3FF03210220FEF7AFFF00216C
:101D78000220FEF7ABFF00210120FEF7A7FF01219B
:101D88000846FEF7A3FF0C210220FEF79FFFFFF78E
:101D98001FFD08BD014B1868704700BF24000020D4
:101DA80030B5141E05469BB0184605DA8B234FF054
:101DB800FF302B601BB030BD4FF40273ADF80C3010
:101DC8000CBF234604F1FF33029305934FF6FF73CC
:101DD80000910491ADF80E3002461E9B69462846D4
:101DE80000F072F8431CBCBF8B232B60002CE1D0A1
:101DF8000022009B1A70DDE707B5009313460A46D8
:101E0800014603480068FFF7CBFF03B05DF804FB09
:101E1800240000202DE9F0478E6882469E420C4639
:101E28009046994637D88A8912F4906F31D00223A8
:101E3800256809696F1A656905EB450595FBF3F592
:101E480009F101033B449D4238BF1D46530530D577
:101E5800294600F035FB064650B90C234FF0FF30F9
:101E6800CAF80030A38943F04003A381BDE8F08796
:101E78003A46216900F0B4FAA38923F4906343F049
:101E88008003A38126613E4426604E466561ED1BB2
:101E9800A5604E4500D94E4632464146206800F0BE
:101EA800AAFAA36800209B1BA36023681E4426602F
:101EB800DCE72A4600F05EFB06460028E2D12169ED
:101EC800504600F0B1FAC8E72DE9F04F9DB00393F2
:101ED8008B8980461D060C4616460FD50B696BB9D3
:101EE800402100F0EDFA2060206128B90C23C8F8E1
:101EF80000304FF0FF30C7E04023636100230993AF
:101F080020238DF8293030234FF0010B8DF82A302B
:101F180037463D4615F8013B0BB1252B3ED1B7EBB3
:101F2800060A0BD05346324621464046FFF772FF59
:101F3800013000F0A480099B534409933B78002B9F
:101F480000F09D8000234FF0FF32CDE90523049374
:101F580007938DF853301A932F46052217F8011B63
:101F68004F4800F02FFA049BD0B9D90644BF20226D
:101F78008DF853201A0744BF2B228DF853202A7856
:101F88002A2A15D02F4600200A25079A394611F823
:101F9800013B303B092B4DD9B8B10FE02F46B8E7CC
:101FA8003F4A3D46801A0BFA00F018430490D3E7E5
:101FB800039A111D12680391002A01DB079204E0BD
:101FC800524243F00203079204933B782E2B0CD124
:101FD8007B782A2B33D1039B02371A1D1B68039287
:101FE800002BB8BF4FF0FF3305932E4D03223978ED
:101FF800284600F0E7F938B14023401B03FA00F007
:10200800049B0137034304933978062226487E1C33
:102018008DF8281000F0D6F9002838D0234B13BBD0
:10202800039B073323F0070308330393099B4B44AF
:1020380009936DE705FB023201200F46A6E700234E
:102048000A25194601370593384610F8012B303A0E
:10205800092A03D9002BC8D00591C6E705FB012141
:1020680001230746F0E703AB00932246104B04A96F
:102078004046AFF30080B0F1FF3F8146D6D1A38937
:102088005B063FF536AF09981DB0BDE8F08F03AB8E
:1020980000932246064B04A9404600F081F8EAE77F
:1020A800BB2C0008C12C0008C52C0008000000004B
:1020B8001D1E00082DE9F04791461F468A680B69E6
:1020C80006469342B8BF1346C9F8003091F843203A
:1020D8000C46DDF8208012B10133C9F800302368BE
:1020E800990642BFD9F800300233C9F80030256894
:1020F80015F0060507D104F1190AE368D9F800209C
:102108009B1AAB4229DC94F843302268003318BF8D
:10211800012392062ED404F1430239463046C047C3
:10212800013021D02368E56803F00603042B18BFAB
:102138000025D9F800204FF0000908BFAD1AA368A0
:10214800226908BF25EAE5759342C4BF9B1AED18BA
:102158001A344D451AD1002008E001235246394669
:102168003046C047013003D14FF0FF30BDE8F0875B
:102178000135C2E73020E11881F843005A1C94F871
:1021880045102244023382F84310C4E70123224653
:1021980039463046C0470130E6D009F10109D8E791
:1021A8002DE9F04301F1430C0C46097E85B06E29F8
:1021B8001746064698460C9A00F0B38022D8632941
:1021C80036D00AD8002900F0B980582900F0838059
:1021D80004F1420584F8421032E0642901D06929EB
:1021E800F6D120681368050603F104012AD51B6897
:1021F8001160002B03DA2D225B4284F843206F48DC
:102208000A2239E0732900F09D8008D86F2920D070
:102218007029DDD1236843F02003236003E075298A
:1022280017D07829D4D17823654884F8453055E00B
:10223800136804F14205191D1B68116084F84230C7
:1022480001238CE01B6810F0400F116018BF1BB20F
:10225800CFE713682568181D1060280601D51B688C
:1022680002E06806FBD51B886F2914BF0A220822E2
:102278005248002184F843106568002DA560C0F21B
:102288009580216821F004012160002B3DD1002DAB
:1022980040F08E806546082A0BD12368DB0708D5F5
:1022A800236962689A42DEBF302305F8013C05F1D4
:1022B800FF35ACEB05032361CDF800803B4603AA4C
:1022C80021463046FFF7F6FE01304DD14FF0FF3082
:1022D80005B0BDE8F083394884F8451013682168D3
:1022E8001D1D1B6815600A060BD5CA0744BF41F0BF
:1022F800200121601BB9226822F0200222601022EE
:10230800B7E74D0648BF9BB2EFE76546B3FBF2F16E
:1023180002FB1133C35C05F8013D0B460029F5D1DA
:10232800B9E713682568181D6169106028061B68DD
:1023380001D5196002E06A06FBD5198000236546BD
:102348002361B9E71368191D11601D6862680021CF
:10235800284600F037F808B1401B606063682361C5
:10236800002384F84330A7E723692A4639463046D4
:10237800C0470130AAD023689B0713D4E068039BA9
:102388009842B8BF1846A3E701234A463946304663
:10239800C04701309AD00135E368039A9B1AAB42D3
:1023A800F2DCEBE7002504F11909F5E7002BACD1C5
:1023B800037804F1420584F842306CE7CC2C00081D
:1023C800DD2C000810B5C9B202449042034601D181
:1023D800002303E01C7801308C42F6D1184610BD6A
:1023E80010B5431E0A44914200D110BD11F8014BAB
:1023F80003F8014FF7E7884210B501EB020307D84D
:10240800421E99420AD011F8014B02F8014FF8E731
:102418008342F5D98118D21AD34200D110BD13F8DE
:10242800014D01F8014DF7E738B50546002943D0BD
:1024380051F8043C0C1F002BB8BFE41800F0D0F88A
:102448001E4A1368104633B9636014602846BDE815
:10245800384000F0C6B8A3420BD9216862189342ED
:1024680001BF1A685B685218226063600460EDE778
:1024780013465A680AB1A242FAD919685818A042F4
:102488000BD120680144581882421960DED11068C7
:102498005268014419605A60D8E702D90C232B60AE
:1024A800D4E7206821188A4201BF116852680918C8
:1024B800216062605C60C9E738BD00BF640200202B
:1024C80070B5CD1C25F0030508350C2D38BF0C253B
:1024D800002D064601DBA94203D90C2333600020F6
:1024E80070BD00F07DF8214A1468214691B9204C4E
:1024F80023681BB9304600F063F82060294630464F
:1025080000F05EF8431C24D10C233046336000F001
:1025180068F8E4E70B685B1B18D40B2B0FD90B602A
:10252800CC18CD50304600F05CF804F10B00231DA8
:1025380020F00700C31AD3D05A42E250D0E74B68C4
:102548008C4216BF636013600C46EBE70C46496883
:10255800CCE7C41C24F00304A04205D0211A30465D
:1025680000F02EF80130CFD02560DBE764020020B0
:1025780068020020F8B5074614460E4621B9BDE8A2
:10258800F8401146FFF79CBF22B9FFF74DFF2546DB
:102598002846F8BD00F026F8A0420FD2214638465A
:1025A800FFF78EFF05460028F2D031462246FFF796
:1025B80017FF31463846FFF737FFE9E73546E7E7C3
:1025C80038B50023054C054608462360FDF7D2FEC2
:1025D800431C02D1236803B12B6038BD6C02002074
:1025E8007047704751F8043C181F002BBCBF0B58AC
:1025F800C0187047537461636B206672616D653AE9
:102608000A000000205230203D2020253038580A8A
:1026180000000000205231203D2020253038580A83
:1026280000000000205232203D2020253038580A72
:1026380000000000205233203D2020253038580A61
:102648000000000020523132203D20253038580A41
:1026580000000000204C52203D2020253038580A28
:1026680000000000205043203D2020253038580A23
:102678000000000020505352203D20253038580AD1
:10268800000000004653522F4641523A0A0000000B
:102698002043465352203D2020253038580A000058
:1026A8002048465352203D2020253038580A000043
:1026B8002044465352203D2020253038580A000037
:1026C8002041465352203D2020253038580A00002A
:1026D800204D4D464152203D20253038580A0000F3
:1026E8002042464152203D2020253038580A00001B
:1026F8004D6973630A000000204C522F4558435F10
:1027080052455455524E3D20253038580A00000095
:102718005B486172644661756C745D0A0000000074
:102728005B4275734661756C745D0A005B55736135
:1027380067654661756C745D0A00000047414D4548
:10274800000000004F56455221000000507265738A
:1027580073204F4B000000005768656E00000000B2
:102768005265616479210000536E616B6500000059
:1027780047616D6500000000506F696E74733A0020
:102788004C6576656C3A000047616D65205061754F
:10279800736564202E2E000020205072657373200C
:1027A8004F4B20202020000020746F20436F6E7450
:1027B800696E75653A20000000000000003E5B4F1E
:1027C8005B3E3E6B4F6B3E1C3E7C3E1C183C7E3C89
:1027D800181C577D571C1C5E7F5E1C00183C180097
:1027E800FFE7C3E7FF0018241800FFE7DBE7FF3027
:1027F800483A060E2629792926407F050507407F95
:1028080005253F5A3CE73C5A7F3E1C1C08081C1C07
:102818003E7F14227F22145F5F005F5F06097F01FD
:102828007F006689956A606060606094A2FFA294E8
:1028380008047E040810207E201008082A1C0808B6
:102848001C2A08081E101010100C1E0C1E0C303804
:102858003E3830060E3E0E06000000000000005F05
:1028680000000007000700147F147F14242A7F2A21
:1028780012231308646236495620500008070300E3
:10288800001C2241000041221C002A1C7F1C2A082F
:10289800083E080800807030000808080808000092
:1028A80060600020100804023E5149453E00427F06
:1028B800400072494949462141494D331814127F55
:1028C8001027454545393C4A4949314121110907F5
:1028D8003649494936464949291E00001400000076
:1028E8004034000000081422411414141414004148
:1028F80022140802015909063E415D594E7C121105
:10290800127C7F494949363E414141227F4141413C
:102918003E7F494949417F090909013E41415173B7
:102928007F0808087F00417F41002040413F017F28
:10293800081422417F404040407F021C027F7F04F0
:1029480008107F3E4141413E7F090909063E415139
:10295800215E7F09192946264949493203017F0129
:10296800033F4040403F1F2040201F3F4038403F2A
:10297800631408146303047804036159494D430040
:102988007F4141410204081020004141417F040277
:10299800010204404040404000030708002054540E
:1029A80078407F28444438384444442838444428EC
:1029B8007F385454541800087E090218A4A49C783F
:1029C8007F0804047800447D40002040403D007F9B
:1029D8001028440000417F40007C047804787C087B
:1029E8000404783844444438FC182424181824244F
:1029F80018FC7C08040408485454542404043F4434
:102A0800243C4040207C1C2040201C3C4030403C62
:102A180044281028444C9090907C4464544C4400C2
:102A28000836410000007700000041360800020126
:102A38000204023C2623263C1EA1A161123A404012
:102A4800207A385454555921555579412154547890
:102A580041215554784020545579400C1E52721229
:102A680039555555593954545459395554545800B1
:102A780000457C410002457D420001457C40F0292B
:102A88002429F0F0282528F07C545545002054547A
:102A98007C547C0A097F49324949493232484848BE
:102AA80032324A4848303A4141217A3A4240207805
:102AB800009DA0A07D39444444393D4040403D3C00
:102AC80024FF2424487E4943662B2FFC2F2BFF0923
:102AD80029F620C0887E0903205454794100004417
:102AE8007D413048484A32384040227A007A0A0A02
:102AF800727D0D19317D2629292F28262929292675
:102B080030484D4020380808080808080808382FB9
:102B180010C8ACBA2F102834FA00007B0000081443
:102B28002A142222142A1408AA005500AAAA55AA6F
:102B380055AA000000FF00101010FF00141414FF25
:102B4800001010FF00FF1010F010F0141414FC0017
:102B58001414F700FF0000FF00FF1414F404FC1421
:102B68001417101F10101F101F1414141F0010101A
:102B780010F0000000001F101010101F101010108F
:102B8800F010000000FF101010101010101010FFAF
:102B980010000000FF140000FF00FF00001F1017C6
:102BA8000000FC04F414141710171414F404F400AF
:102BB80000FF00F714141414141414F700F7141475
:102BC80014171410101F101F141414F4141010F0FC
:102BD80010F000001F101F0000001F14000000FC70
:102BE800140000F010F01010FF10FF141414FF145C
:102BF8001010101F00000000F010FFFFFFFFFFF093
:102C0800F0F0F0F0FFFFFF0000000000FFFF0F0FE3
:102C18000F0F0F38444438447C2A2A3E147E02029F
:102C28000606027E027E0263554941633844443CED
:102C380004407E201E2006027E020299A5E7A5997F
:102C48001C2A492A1C4C7201724C304A4D4D3030B6
:102C580048784830BC625A463D3E494949007E01A1
:102C680001017E2A2A2A2A2A44445F444440514AC0
:102C7800444040444A51400000FF0103E080FF0007
:102C88000008086B6B083612362436060F090F0643
:102C9800000018180000001010003040FF0101006B
:102CA8001F01011E00191D1712003C3C3C3C00008E
:102CB800000000232D302B2000686C4C00656667EF
:102CC800454647003031323334353637383941429A
:102CD800434445460030313233343536373839616C
:062CE800626364656600F2
:102CF000785634129400002000000000000000000C
:102D000000000000010203040607080900A24A04AB
:102D10007896FFFF2800002000000000000000005F
:102D200000000000000000000000000000000000A3
:102D30000000000000000000000000000000000093
:102D40000000000000000000000000000000000083
:102D50000000000000000000000000000000000073
:102D60000000000000000000000000000000000063
:0C2D7000000000000000000032547698C3
:040000050800010DE1
:00000001FF
